:020000040802F0
:100000000007002065020208F31602080116020824
:10001000F11602085B040208A117020800000000A4
:10002000000000000000000000000000F7160208B9
:100030006904020800000000F5160208F91602081B
:100040007F0202087F0202087F0202087F02020884
:100050007F0202087F0202087F0202087F02020874
:100060007F0202087F0202087F0202087F02020864
:100070007F0202087F0202087F0202087F02020854
:100080007F0202087F0202087F0202087F02020844
:100090005D0402087F0202087F0202087F02020854
:1000A0007F0202087F0202087F0202087F02020824
:1000B0007F0202087F0202087F0202087F02020814
:1000C0007F0202087F0202087F0202087F02020804
:1000D0007F0202087F0202087F0202087F020208F4
:1000E0007F0202087F0202087F0202087F020208E4
:1000F0007F0202087F0202087F0202087F020208D4
:100100007F0202087F0202087F0202087F020208C3
:100110007F0202087F0202087F0202087F020208B3
:100120007F0202087F0202087F0202087F020208A3
:100130007F02020800000000000000007F020208A9
:100140007F0202087F0202087F0202087F02020883
:100150007F0202087F0202087F0202087F02020873
:100160007F0202087F0202087F0202087F02020863
:100170007F0202087F0202087F02020800000000DE
:10018000000000007F0202080000000000000000E4
:100190007F02020800000000000000007F02020849
:1001A0000000000000000000000000007F020208C4
:1001B0007F0202087F0202087F0202087F02020813
:1001C0007F02020800F002F800F03CF80AA090E874
:1001D000000C82448344AAF10107DA4501D100F002
:1001E00031F8AFF2090EBAE80F0013F0010F18BF93
:1001F000FB1A43F001031847641600008416000040
:10020000103A24BF78C878C1FAD8520724BF30C842
:1002100030C144BF04680C60704700000023002414
:1002200000250026103A28BF78C1FBD8520728BF06
:1002300030C148BF0B6070471FB501F001FB1FBD07
:1002400010B510BD00F0CFF81146FFF7F5FF01F033
:10025000B9FA00F0EDF803B4FFF7F2FF03BC00F0C9
:10026000F5F800000948804709480047FEE7FEE727
:10027000FEE7FEE7FEE7FEE7FEE7FEE7FEE7FEE756
:1002800004480549054A064B7047000091170208CB
:10029000C501020800010020000700200003002023
:1002A0000003002053EA020C00F069802DE9F04BB6
:1002B0004FF00006002B1FBFB3FA83F503FA05F4D5
:1002C00024FA05F65E4012BF1643B2FA82F502FA2E
:1002D00005F4C5F120051EBF22FA05FC44EA0C0412
:1002E000203556EA044C4FEA144418BF641C4FF002
:1002F00000084FF00009904271EB030C39D300293C
:1003000019BFB1FA81F701FA07F6B0FA80F700FADF
:1003100007F6C7F120071EBF20FA07FC46EA0C06C5
:100320002037B6FBF4FCA7EB0507103F07F01F0BC7
:10033000CBF120060CFA0BFB2CFA06F644BFB346B1
:100340000026202FA4BF5E464FF0000B5BEA060C90
:1003500008BF4FF0010B19EB0B09ABFB027C48EB1C
:100360000608C01B06FB02CC0BFB03CC71EB0C0197
:10037000C1E70B46024641464846BDE8F08B13B53F
:100380004FF000004FF00001AFF30080BDE81C40CB
:1003900070474FF0000200B5134694469646203948
:1003A00022BFA0E80C50A0E80C50B1F12001BFF42E
:1003B000F7AF090728BFA0E80C5048BF0CC05DF894
:1003C00004EB890028BF40F8042B08BF704748BFE2
:1003D00020F8022B11F0804F18BF00F8012B704756
:1003E000704770477047754600F02CF8AE46050020
:1003F0006946534620F00700854618B020B5FFF740
:100400003FFFBDE820404FF000064FF000074FF0DF
:1004100000084FF0000B21F00701AC46ACE8C00922
:10042000ACE8C009ACE8C009ACE8C0098D4670472B
:1004300010B50446AFF300802046BDE81040FFF73A
:100440000ABF0000004870479C00002001491820A6
:10045000ABBEFEE7260002007047FEE7014800F051
:10046000C2B900005400002070470000064A13681B
:1004700023F44073136013681360136843F001039F
:100480001360017070470000103C0240094910B52C
:100490000C6824F440740C600C6844F440740C60E4
:1004A0000C6844F001040C600260BFF36F8F43607E
:1004B00010BD0000103C0240074A136823F440734B
:1004C0001360136843F480731360136843F00103EF
:1004D0001360018070470000103C0240074A136817
:1004E00023F440731360136843F4007313601368BC
:1004F00043F001031360016070470000103C0240AC
:100500001C490868C2061C4805D5C26942F01002A1
:10051000C26110220A600A68920605D5C26942F0DB
:100520000802C26120220A600A68520605D5C26923
:1005300042F00402C26140220A600A68120605D530
:10054000C26942F00202C26180220A600A68D205D2
:1005500006D5C26942F00102C2614FF480720A609E
:100560000A68920705D5C26942F02002C2610220E2
:10057000086070470C3C02407C00002070B51149B7
:1005800004460020C86100F0D7FC06460E4D09E085
:10059000601C07D024B100F0CFFC801BA04201D921
:1005A000032070BD2868C003F2D42868C00701D0BA
:1005B00001202860286810F4F970F2D0FFF7A0FF3E
:1005C000012070BD7C0000200C3C024090F82020EF
:1005D000012A07D0022A05D0416A41F480214162F4
:1005E00001207047006842690A4342610020704759
:1005F00010B590F82020012A07D0022A05D0416AC0
:1006000041F480214162012010BD3B48D0F8002216
:1006100042F00102C0F80022D0F8002222F47C52FD
:10062000C0F80022D0F800224B6A42EA0322C0F848
:1006300000220A7D02F01F0301229A40D0F81C32EA
:100640009343C0F81C32CB69B3B9D0F80C32934352
:10065000C0F80C328C894B6864F31F434C6900EB83
:10066000C404C4F840320C890B6864F31F434C691E
:1006700000EBC404C4F84432CB69012B16D1D0F886
:100680000C321343C0F80C320C884B6864F31F43E0
:100690004C6900EBC404C4F840320C89CB6864F3A5
:1006A0001F434C6900EBC404C4F844328B69002B2F
:1006B000D0F804320ED01343C0F804320B69002B7B
:1006C000D0F8143208D01343C0F81432096A012953
:1006D00004D008E09343EFE79343F5E7D0F81C120A
:1006E0001143C0F81C12D0F8001221F00101C0F82B
:1006F0000012002010BD000000640040704730B5BB
:1007000090F82040012C05D0022C03D0416A41F41E
:1007100080215DE00468002955D02469A40754D0E5
:100720004FF4D874056804EB01142D5915F0040535
:10073000956005682D594ED0ED08556005682C5917
:1007400004F00204D4604FF4DA74056804EB011479
:100750002D5905F00F05156105682D59C5F30725BD
:10076000956105682C59240C54614FF4DC720468BF
:1007700002EB0112A4581C700468A458240A5C708F
:100780000468A458240C9C700468A258120EDA70F5
:100790004FF4DE72046802EB0112A4581C71046865
:1007A000A458240A5C710468A458240C9C71046841
:1007B000A258120EDA71006881B1016941F020017E
:1007C0000161002030BDE468A8E7416A41F40011EE
:1007D0004162012030BD6D0D1560AFE7C16841F089
:1007E0002001C160EDE72DE9F05F054600680024B7
:1007F0004669D0F804908768D0F80CB0D0F810A003
:10080000D0F81880F10748D0F90714D00121816091
:10081000B80703D5284600F018FA0CE0780702D58F
:100820004FF4006407E0380702D54FF4805402E02B
:10083000284600F009FAF80516D529684FF48070AB
:100840008860B80503D5284600F001FA0CE0780569
:1008500002D544F4005407E0380502D544F480443E
:1008600002E0284600F0F2F9F80316D529684FF4A3
:1008700080308860B80303D5284600F0EAF90CE020
:10088000780302D544F4004407E0380302D544F469
:10089000803402E0284600F0DBF9300707D55FEA34
:1008A000CB6004D52968102044F40074C860700738
:1008B0004FF0080707D55FEA0B7004D52868C760BA
:1008C000284600F059F9B00706D52868C0688007A7
:1008D00002D0284600F052F9700607D55FEACA60D8
:1008E00004D52968102044F480640861B00607D557
:1008F0005FEA0A7004D528680761284600F074F999
:10090000F00606D528680069800702D0284600F066
:100910006CF9B00308D55FEAC96005D529681020D5
:100920004860284600F062F9F00307D55FEA0970D5
:1009300004D528684760284600F08CF9300446D575
:100940005FEA497040D5F00504D55FEAC87001D070
:1009500044F00104B00504D55FEA887001D544F085
:100960000204700504D55FEA487001D544F0040420
:10097000300529D518F0700F26D008F070004028F7
:1009800015D006DC102809D020280AD0302816D12E
:100990000AE050280ED0602811D10EE044F008047F
:1009A0000DE044F010040AE044F0200407E044F0B5
:1009B000400404E044F0800401E044F480742868BA
:1009C000816921F070018161296804204860002C50
:1009D00005D0686A204368622846FFF78FFEBDE8AD
:1009E000F09F70B5040003D094F8200010B104E02B
:1009F000012070BD204600F081F82068016841F0B8
:100A00000101016000F098FA0546052604E000F0B7
:100A100093FA401B0A2811D820684068C007F6D016
:100A20002068016821F00201016000F085FA0546A6
:100A30000BE000F081FA401B0A2806D9606A40F4F6
:100A40000030606284F82060D2E720684068800748
:100A5000EFD4207E0128206801683DD021F080017C
:100A60000160607E01282068016838D021F04001D3
:100A70000160A07E01282068016833D021F02001A8
:100A80000160E07E0128206801682ED041F010014D
:100A90000160207F01282068016829D021F0080129
:100AA0000160607F01282068016824D021F00401E2
:100AB0000160D4E902010843D4E904121143084358
:100AC0006168491E08432168C861002060620120F6
:100AD00084F82000002070BD41F08001C0E741F0A3
:100AE0004001C5E741F02001CAE721F01001CFE73E
:100AF00041F00801D4E741F00401D9E710B586B010
:100B0000044614216846FFF744FC184920688842CF
:100B100029D117480021026842F000720260006883
:100B200000F00070059012481038026842F001028F
:100B30000260006800F0010005904FF4C050009082
:100B40000220CDE9010103200390092004906946A9
:100B5000084800F0F1F800221146142000F05AFA7B
:100B6000142000F049FA06B010BD000000640040F7
:100B700040380240000002407047000010B5164B9C
:100B8000164A0021FFF7BBFD13480178532922D1F3
:100B9000417854291FD1817841291CD1C17852292B
:100BA00019D10079542816D10B4800230838D0E910
:100BB0000012022000F06CF800F060F8BFF34F8FD5
:100BC00007480168074A01F4E06111430160BFF37F
:100BD0004F8F00BFFDE710BD080000203800002047
:100BE0000CED00E00400FA05704770477047000004
:100BF00070B5044690F82000012804D0606A40F4E3
:100C00000020606218E0022084F82000206801685B
:100C100021F00101016000F08FF905460EE000BFF0
:100C200000F08AF9401B0A2808D9606A40F40030B5
:100C30006062052084F82000012070BD20684068B3
:100C4000C007EDD1606270BD704770477047704754
:100C5000704770477047000070B5044600F06CF9AB
:100C60000546601C02D004480078044400F064F992
:100C7000401BA042FAD370BD100000200348016859
:100C800041F000410160002070470000103C02402C
:100C90002DE9F0471B4E05461446307E1F46894617
:100CA000012808D0012030764CF250384046FFF73A
:100CB00065FC18B114E00220BDE8F0879DB1012D5C
:100CC00016D0022D19D022463B464846FFF7DEFBE0
:100CD0004046FFF753FC0C490A6822F001020A6003
:100CE00000213176E8E7E1B24846FFF7BFFBEFE7C6
:100CF000A1B24846FFF7E0FBEAE721464846FFF786
:100D0000EDFBE5E77C000020103C02400749002095
:100D10000A68002A09DA054A054B0C3A1360054BAC
:100D200013600968002900DA01207047103C024076
:100D300023016745AB89EFCD2DE9F84FDFF8ACA172
:100D4000002201240AF1040B03254FF00F090BF1D7
:100D5000040E00BF0B6804FA02F63340B3426ED1B2
:100D60000F7907F00307012F01D0022F16D18768F2
:100D70004FEA420805FA08FC27EA0C07D1F80CC034
:100D80000CFA08FC4CEA070CC0F808C04768B743E7
:100D90000E79C6F3001696403E4346600E79F64340
:100DA000B6070AD0C6684FEA420C05FA0CF7BE43F4
:100DB0008F6807FA0CF73743C7600E7906F0030611
:100DC000022E10D1D60800EB8608D8F8206057070D
:100DD0004FEAD76C09FA0CF7BE430F6907FA0CF714
:100DE0003743C8F8207006684FEA420C05FA0CF742
:100DF000BE430F7907F0030707FA0CF73743076084
:100E00004E6816F4403F6BD0394E376847F4804740
:100E10003760366822F0030706F480460096354EA8
:100E200007EB060CDCF8086897074FEA177809FA11
:100E300008F7BE43304FB84202D100271FE04FE011
:100E40002E4FB84201D1012719E02D4FB84201D1F0
:100E5000022714E02B4FB84201D103270FE02A4F9D
:100E6000B84201D104270AE0284FB84201D1052732
:100E700005E0274FB84201D1062700E0072707FA0F
:100E800008F73743CCF80878DAF800605746D1F80D
:100E900004C09E435FEACC3C00D51E433E60DBF8B5
:100EA00000605F46D1F804C09E435FEA8C3C00D5E9
:100EB0001E433E60DEF800607746D1F804C09E43D2
:100EC0005FEACC2C00D51E433E60084F0C373E68CD
:100ED000D1F804C09E435FEA8C2C00D51E433E60CF
:100EE000521C102AFFF436AFBDE8F88F003C0140D9
:100EF000443802400030014000000240000402403B
:100F000000080240000C02400010024000140240A1
:100F1000001802400069084000D001207047426973
:100F200021EA02030A4043EA0241816170470AB1A3
:100F3000816170470904FBE7014880687047000041
:100F400010000020024881680278114481607047D7
:100F5000100000200B4810B5016841F400710160D9
:100F6000016841F480610160016841F480710160B1
:100F7000032000F06FF80F2000F006F800F024F8CE
:100F8000002010BD003C024070B50D4D04464FF4EA
:100F90007A712878B1FBF0F00A490968B1FBF0F0EA
:100FA00000F01AFB48B9102C07D200222146501E2F
:100FB00000F030F800206C6070BD012070BD0000B2
:100FC000100000201C0000200A4808B5016841F408
:100FD00080410160006800F4804000900548001FD7
:100FE000016841F080510160006800F0805000907D
:100FF00008BD000044380240002809DB00F01F0251
:10100000012191404009800000F1E020C0F800116A
:1010100070470000F0B40E4B1B680C46C3F302236C
:10102000C3F10705042D00D90425191D072901D294
:10103000002300E0DB1E012606FA05F1491E2140CF
:1010400099409E40761E16403143F0BC00F0A9BB8B
:101050000CED00E0064900F0070208684FF6FF03B8
:10106000184040EA0220034A10430860704700001D
:101070000CED00E00000FA052DE9F0470E460500F2
:1010800065D0DFF81481D8F80000F7B200F00F0047
:10109000B04207D288F80070D8F8000000F00F00C6
:1010A000B04254D128683D4C810712D5400703D582
:1010B000206840F4E05020602878000703D52068BD
:1010C00040F4604020602068A96820F0F0000843E8
:1010D00020602878C0072DD0304968680839012879
:1010E00012D0022813D0032811D0096889070029DB
:1010F0002DDA216821F0030101432160FFF71CFF75
:10110000814641F2883A0EE009688903EFE70968F1
:101110008901ECE7FFF710FFA0EB0901514502D967
:101120000320BDE8F0872068696800F00C00B0EB90
:10113000810FEFD1D8F80010404601F00F01B14205
:1011400007D90770006800F00F00B04201D00120FD
:10115000E7E72878400705D52068E96820F4E050E3
:10116000084320602878000706D52068296920F404
:10117000604040EAC100206000F018F82168084A89
:10118000C1F30311515CC840064908600648006875
:10119000FFF7FAFE0020C4E7003C02400838024096
:1011A0004A1802081C00002014000020224810B534
:1011B000006810F00C02214815D04110042A11D00B
:1011C0001D4C241F082A0FD00C2A0CD1226823683A
:1011D00002F03F025B0221D52068C0F38810A0FB1B
:1011E000010120E0084610BD2268236802F03F029A
:1011F0005B0205D52068C0F38810A0FB010104E064
:101200002168C1F38811A1FB00010023FFF74AF810
:101210002168C1F30141491C49000AE02168C1F37A
:101220008811A1FB00010023FFF73CF82168C1F3FE
:101230000271B0FBF1F010BD083802400024F40048
:101240002DE9F84F04007DD0DFF878B32078ABF1BA
:101250000407C007A7F1040550D0DBF8001058467A
:10126000C1F3810101290FD00168C1F38101022975
:1012700002D13968490207D40068C0F3810003280D
:1012800009D13868400206D52868800336D56068E1
:101290000028D8D032E06068B0F5803F10D0B0F5BB
:1012A000A02F286810D020F480302860286820F40F
:1012B000802028606068A0B1FFF73EFE06460CE083
:1012C000286840F48030F4E740F480202860F7E795
:1012D000FFF732FE801B642876D828688003F7D594
:1012E0000CE0FFF729FE064605E000BFFFF724FEED
:1012F000801B6428F0D828688003F7D42078DFF8B2
:10130000C89280074FF0000A44D5DBF80010584619
:1013100011F00C0F0FD00168C1F38101022902D135
:101320003968490207D50068C0F3810003280AD153
:101330003868400207D42868800715D5E06801287E
:1013400000D111E03AE1E068B0B10120C9F8000035
:10135000FFF7F2FD064604E0FFF7EEFD801B0228D2
:10136000BAD828688007F7D52868216920F0F800E6
:1013700040EAC10028600DE0C9F800A0FFF7DCFDDD
:10138000064604E0FFF7D8FD801B02281CD8286819
:101390008007F7D42078000727D5DFF828828B480C
:1013A000616908F16C0881B101210160FFF7C4FD9A
:1013B000064604E0FFF7C0FD801B022804D8D8F8D9
:1013C00000008007F6D510E089E0C0F800A0FFF724
:1013D000B3FD064605E000BFFFF7AEFD801B022807
:1013E0007DD8D8F800008007F6D42078400769D56A
:1013F00074484FF0000838300068C0000BD47148C2
:101400003830016841F08051016000684FF00108F8
:1014100000F0805000906E4E3068C00511D43068E6
:1014200040F480703060FFF787FD009006E000BF59
:10143000FFF782FD0099401A022850D83068C00595
:10144000F6D5604EA068683601280FD005283068B0
:1014500010D020F001003060306820F004003060CF
:10146000A068B8B1FFF768FD00900FE0306840F069
:101470000100F4E740F004003060F7E7FFF75CFD9F
:101480000099411A41F28830814264D8306880075F
:10149000F4D50EE0FFF750FD009007E0FFF74CFD9C
:1014A0000099411A41F28830814254D8306880074F
:1014B000F4D4B8F1000F05D042483830016821F06B
:1014C00080510160A069A8B3DBF80010C1F381016D
:1014D000022947D00228C9F860A005D000E03AE010
:1014E000FFF72AFD044639E0FFF726FD064604E033
:1014F000FFF722FD801B02282DD828688001F7D431
:10150000F4E907010843E168324A490802EB014166
:10151000A26841EA82110843217C40EA0160217DF2
:1015200040EA017038600120C9F86000FFF704FD4F
:10153000044606E044E000BFFFF7FEFC001B022863
:1015400009D828688001F7D53AE000BFFFF7F4FC1E
:10155000001B022802D90320BDE8F88F286880010B
:10156000F4D42DE00128F7D03868E26900F4800156
:10157000914223D1226A00F03F0191421ED147F6E9
:10158000C071626A0140B1EB821F17D1A26A4FF0AD
:10159000FF3300F4403103EB5202B1EB024F0DD1A7
:1015A00094F82C2000F07061B1EB026F06D194F832
:1015B000301000F0E040B0EB017F01D00120CBE71C
:1015C0000020C9E70838024000004742800E474229
:1015D000007000400000FFFF10B5401EB0F1807F9A
:1015E00001D3012010BD4FF0E02460610F2160178E
:1015F00000F0D7F80020A06107202061002010BD76
:10160000FEE7000010B518488AB0164901600321B2
:101610000024C0E901144FF43021C0E903414FF424
:1016200080114161047644768476C47604774477E9
:10163000FFF7D7F908B172B6FEE70120CDE9054002
:101640004FF6A06107900394CDE90014089004942C
:101650000E200990029469460348FEF7C9FF0AB0BC
:1016600010BD0000006400405400002030B587B079
:1016700014216846FEF78DFE1A480024016841F0E7
:1016800004010160016801F004010591016841F065
:1016900080010160016801F080010591016841F05D
:1016A000010101600068104D00F00100059000226A
:1016B00020212846FFF73BFC4FF40050CDE9000401
:1016C00069460A480294FFF737FB2020009001206A
:1016D000CDE90104694628460394FFF72DFB07B0C6
:1016E00030BD0000303802400000024000080240D7
:1016F000FEE7FEE770477047FFF724BC30B593B0B4
:1017000034216846FEF745FE14210DA8FEF741FE80
:101710001D480025016841F080510160006800F01B
:10172000805012901948016821F4404141F48041F1
:1017300001600068022400F44040129001200390F0
:1017400010200490009406940820CDE907505A20F8
:10175000CDE909040B9468460C94FFF771FD08B1BC
:1017600072B6FEE70DA90F2081E831004FF48050DA
:10177000CDE9100502210DA8FFF77EFC002801D05D
:1017800072B6FEE713B030BD403802400070004032
:101790000248016841F470010160704788ED00E083
:1017A000FEE70907090E002804DB00F1E02080F8BD
:1017B0000014704700F00F0000F1E02080F8141DC5
:1017C0007047000072B619481949086062B6FFF701
:1017D0009DFAFFF7BFFBFFF791FFFFF747FFFFF70A
:1017E00011FF1448FFF704FA02211248FEF7EEFE3B
:1017F00010484FF4FE6134380F4D0160082101613B
:1018000000210175C1600D4E4FF4005481602146E6
:101810002846FFF77FFB012803D120213046FFF740
:101820007EFB3220FFF718FAF1E700000000020803
:1018300008ED00E0540000200008024000000240D3
:101840004FF04070E1EE100A704700000000000009
:101850000000010203040607080900007C180208C2
:101860000000002020000000000202089C1802086E
:1018700020000020E00600001C020208FCFF070810
:101880007856341200000000000000000100000043
:0C18900010000000000000000024F40024
:04000005080201C527
:00000001FF
